:100000006AEF01F00000000000EF00F000000000C7
:0A0010000000000000000000F3D71C
:10001C000F0E0C6E470E0D6E0D2EFED70C2EFCD750
:06002C00000000001200BC
:0A003200210E0D6E0D2EFED71200F8
:06003C00000000001200AC
:1000420034BE02D0839E01D0838E34BC02D0839C06
:1000520001D0838C34BA02D0839A01D0838A34B817
:1000620002D0839801D083882AB002D0848401D040
:1000720084948482E2DF849234B602D0839E01D0DB
:10008200838E34B402D0839C01D0838C34B202D0EC
:10009200839A01D0838A34B002D0839801D08388B6
:1000A2002AB002D0848401D084948482C6DF8492F0
:0C00B2002AA002D0B2DF01D0BBDF120098
:0C00BE002A9031C034F0BEDF2A8012000E
:1000CA000FD0800E316E19D0C00E316E16D0940E3C
:1000DA00316E13D0D40E316E10D0800E316E0DD029
:1000EA003150010AEEE03150020AEEE03150030AC3
:1000FA00EEE03150040AEEE0F0D73204006E3150DF
:10010A00002600C031F02A8000C034F095DF2A9022
:0A011A0033C034F091DF2A80120098
:10012400400E346E8CDF2E6A2E50070811E39D0EAC
:100134002E24F66E030EF76E000EF722000EF86EF4
:10014400000EF8220900F5CF31F0B7DF2E2AECD7E4
:10015400020E346E74DF2CC031F02DC032F0336ADD
:04016400B2DF1200F4
:100168000900F5CFE6FF0006FBE10106F9E1120000
:060178000F0EC11212007F
:10017E00969296949598959A959C959E8492849431
:10018E00839E839C839A839842DF41DF40DF838A7C
:10019E00838884824CDF84923ADF848248DF8492A3
:1001AE0036DF848244DF849232DF839884823FDF9D
:1001BE0084922DDF84823BDF8492839A838E8482A5
:1001CE0036DF849224DF839E8388848230DF84929C
:1001DE00839884822CDF84921ADF848228DF8492B3
:1001EE008388848224DF849212DF839884821FDFC7
:1001FE008492838E838C838A8388848218DF849290
:06020E0006DF2A80120049
:10021400480E346E14DF2E6A2E50070811E3950E33
:100224002E24F66E030EF76E000EF722000EF86E03
:10023400000EF8220900F5CF31F03FDF2E2AECD76B
:10024400020E346EFCDE2CC031F02DC032F0010EF3
:06025400336E39DF1200D9
:10025A000FD0800E2C6E19D0C00E2C6E16D0940EB4
:10026A002C6E13D0D40E2C6E10D0800E2C6E0DD0A6
:10027A002C50010AEEE02C50020AEEE02C50030A40
:10028A00EEE02C50040AEEE0F0D72D04006E2C505C
:10029A00002600C02CF000C034F0CEDE2A90306A6E
:1002AA0030502E24E96E000E2F20EA6EEE520BE03B
:1002BA0030502E24E96E000E2F20EA6EEECF31F078
:0A02CA00F9DE302AEDD72A80120079
:1002D400D3EC01F04FDF51DF010E346EB0DE0C0EB3
:1002E400346EADDE010E2C6E010E2D6E150E2E6ECB
:1002F400000E2F6EB0DF020E2C6E010E2D6E240E3A
:100304002E6E000E2F6EA7DF2B6A2B500F0813E3FF
:10031400060E0B6E130E0C6EAD0E0D6E0D2EFED76B
:100324000C2EFCD70B2EFAD7000000001C0E346EE6
:1003340086DE2B2AEAD72B6A2B500F0813E3060E0E
:100344000B6E130E0C6EAD0E0D6E0D2EFED70C2E15
:10035400FCD70B2EFAD700000000180E346E6FDEA7
:100364002B2AEAD7020E2C6E030E2D6ED9DE020E56
:0C0374002C6E070E2D6E4CDFFFD7FFD75C
:1003A60010EE15F0150E006E010E016E800EF66E43
:0E03B600030EF76E000EF86EB4EC00F01200AD
:0F0380005072696D65697261204C696E68610029
:06038F004D612061210018
:080395001F15151F1B1F111F8E
:08039D001F111010111F020EC8
:020000040030CA
:0D000100021F1EFF8181FF0FC00FE00F40A6
:00000001FF
