:10000000C9EF01F00000000000EF00F00000000068
:0A0010000000000000000000F3D71C
:10001C000F0E0C6E470E0D6E0D2EFED70C2EFCD750
:06002C00000000001200BC
:0A003200210E0D6E0D2EFED71200F8
:06003C00000000001200AC
:1000420038BE02D0839E01D0838E38BC02D0839CFE
:1000520001D0838C38BA02D0839A01D0838A38B80F
:1000620002D0839801D083881DB002D0848401D04D
:1000720084948482E2DF849238B602D0839E01D0D7
:10008200838E38B402D0839C01D0838C38B202D0E4
:10009200839A01D0838A38B002D0839801D08388B2
:1000A2001DB002D0848401D084948482C6DF8492FD
:0C00B2001DA002D0B2DF01D0BBDF1200A5
:1000BE00086A096A100E0C6E0134083609360450AF
:1000CE00085E0550D8A0053C095ED8B007D0045094
:1000DE0008260550D8B0053C0926D89000360136C2
:0600EE000C2EEAD71200FF
:1000F400356A050E355C0AE235503324E16E000E94
:100104003420E26E200EE66E352AF3D735503324C0
:10011400E16E000E3420E26EE66A35063550332473
:10012400366E000E3420376E0A0E046E000E056E15
:1001340031C000F032C001F0C0DF08C000F009C0D7
:1001440001F0300E002636C0E1FF37C0E2FF00C0E8
:10015400E6FF0A0E046E000E056E31C000F032C0D8
:1001640001F0ABDF00C031F001C032F0000E011825
:1001740002E1000E001801E102D03506CFD71200CB
:0C0184001D9031C038F05BDF1D801200C0
:0A0190000F0EC1129380938212003B
:10019A000900F5CFE6FF0006FBE10106F9E11200CE
:1001AA00969296949598959A959C959E8492849405
:1001BA00839E839C839A83982CDF2BDF2ADF838A92
:1001CA008388848236DF849224DF848232DF8492B9
:1001DA0020DF84822EDF84921CDF8398848229DFC9
:1001EA00849217DF848225DF8492839A838E8482A5
:1001FA0020DF84920EDF839E838884821ADF8492B2
:10020A008398848216DF849204DF848212DF8492C8
:10021A00838884820EDF8492FCDE8398848209DFDD
:10022A008492838E838C838A8388848202DF849279
:06023A00F0DE1D80120041
:100240002D6A2E6A27C02FF028C030F0800E2818A3
:10025000006E800E005C02E1000E275C0BE2010ED6
:100260002D6E000E2E6E275000082F6E28C030F025
:10027000000E30562FC031F030C032F029C033F0BC
:100280002AC034F037DF060E2B6E000E2C6E000EE7
:10029000006E2C50005C02E12B50000819E22B503C
:1002A0002924E16E2C502A20E26E010E2B5C006E98
:1002B000000E2C58016E00502924E96E01502A20AE
:1002C000EA6EEECFE6FF010E2B5E000E2C5ADFD752
:1002D00029C0E1FF2AC0E2FF200EE66E2D502E104D
:1002E0001AE02B6A2C6A2B502924E96E2C502A2004
:1002F000EA6EEE50200A03E12B4A2C2AF4D7010EB5
:100300002B5E000E2C5A2B502924E16E2C502A20F3
:08031000E26E2D0EE66E1200F4
:100318000FD0800E276E19D0C00E276E16D0940EFF
:10032800276E13D0D40E276E10D0800E276E0DD0F6
:100338002750010AEEE02750020AEEE02750030A90
:10034800EEE02750040AEEE0F0D72804006E2750AC
:10035800002600C027F000C038F06FDE1D902B6A21
:100368002B502924E96E000E2A20EA6EEE520BE08B
:100378002B502924E96E000E2A20EA6EEECF31F0C8
:0A038800FDDE2B2AEDD71D801200C8
:10039200560E156E610E166E6C0E176E6F0E186E7F
:1003A200720E196E3A0E1A6E200E1B6E1C6A256AA8
:1003B200266AEDDEF9DE010E386E42DE0C0E386E74
:1003C2003FDE010E276E010E286E150E296E000EFD
:1003D2002A6EA1DF81B222D0254A262A25C027F023
:1003E20026C028F01E0E296E000E2A6E28DF010E8E
:1003F200276E080E286E1E0E296E000E2A6E8BDFE7
:10040200040E0B6E0C0E0C6E330E0D6E0D2EFED7FF
:100412000C2EFCD70B2EFAD70000000081B024D09E
:10042200010E255E000E265A25C027F026C028F0B0
:100432001E0E296E000E2A6E02DF010E276E080EB6
:10044200286E1E0E296E000E2A6E65DF040E0B6EDC
:100452000C0E0C6E330E0D6E0D2EFED70C2EFCD72D
:0C0462000B2EFAD700000000B5D7FFD722
:020000040030CA
:0D000100021F1EFF8181FF0FC00FE00F40A6
:00000001FF
