:1000000056EF01F00000000000EF00F000000000DB
:0A0010000000000000000000F3D71C
:06001C00000000001200CC
:100022000F0E0C6E470E0D6E0D2EFED70C2EFCD74A
:06003200000000001200B6
:0A003800210E0D6E0D2EFED71200F2
:100042000001B5BF02D08A9601D08A86B5BD02D022
:100052008A9401D08A84B5BB02D08A9201D08A8266
:10006200B5B902D08A9001D08A805FB002D08A8866
:1000720001D08A988A8AD1DF8A9AB5B702D08A9645
:1000820001D08A86B5B502D08A9401D08A84B5B3EC
:1000920002D08A9201D08A82B5B102D08A9001D070
:1000A2008A805FB002D08A8801D08A988A8AB5DFB6
:0E00B2008A9A5FA002D0B4DF01D0BDDF120039
:0C00C0005F90B4C0B5F0BDDF5F8012009F
:1000CC0010D0800E0001B06F1AD0C00EB06F17D0D8
:1000DC00940EB06F14D0D40EB06F11D0800EB06FE0
:1000EC000ED00001B051010AECE0B051020AEDE073
:1000FC00B051030AEDE0B051040AEDE0EFD7B105C1
:10010C00006EB051002600C0B0F000C0B5F093DF17
:10011C005F90606B6051B225E96E000EB321EA6E00
:10012C00EE520BE06051B225E96E000EB321EA6E7F
:0E013C00EECFB4F0BFDF602BEDD75F80120076
:10014A000F01396B3B6B95808380958283829584FE
:04015A008384120088
:10015E000900F5CFE6FF0006FBE10106F9E112000A
:10016E00939A939893909392939493968A9A8A984B
:10017E008A968A948A928A904DDF4CDF4BDF8A8270
:10018E008A808A8A44DF8A9A45DF8A8A40DF8A9A81
:10019E0041DF8A8A3CDF8A9A3DDF8A908A8A37DF7E
:1001AE008A9A38DF8A8A33DF8A9A8A928A868A8A7C
:1001BE002EDF8A9A2FDF8A968A808A8A28DF8A9A89
:1001CE008A908A8A24DF8A9A25DF8A8A20DF8A9A91
:1001DE008A808A8A1CDF8A9A1DDF8A908A8A17DFB4
:1001EE008A9A8A868A848A828A808A8A10DF8A9A82
:0601FE0011DF5F8012001A
:10020400010E0001616F000E626F5D6A5E6A010E8D
:10021400636F000E646F010E756F000E766F010E32
:10022400B56F0DDF010EB06F010EB16F650EB26FC9
:10023400000EB36F49DF020EB06F010EB16F4D0EA9
:0A024400B26F000EB36F40DF12002E
:10024E0010D0800E0001AD6F1AD0C00EAD6F17D05A
:10025E00940EAD6F14D0D40EAD6F11D0800EAD6F65
:10026E000ED00001AD51010AECE0AD51020AEDE0F5
:10027E00AD51030AEDE0AD51040AEDE0EFD7AE0546
:10028E00006EAD51002600C0ADF05F8000C0B5F02D
:0E029E00D1DE5F90AFC0B5F0CDDE5F80120004
:1002AC00D1EC02F04CDF5DDF010E0001B56FC3DE57
:1002BC000C0EB56FC0DE010EB56FBDDE010EB06F5A
:1002CC00010EB16F250EB26F000EB36FF9DE020E88
:1002DC00B06F010EB16F150EB26F000EB36FF0DE82
:1002EC0083B065D0000E5E1802E1000E5D185FE170
:1002FC0052D0010EAD6F010EAE6F3E0EAF6FA1DF8F
:10030C00010EB06F090EB16F350EB26F000EB36FE8
:10031C00D7DE020E616F000E626F010E756F000E5C
:10032C00766F020EAD6F010EAE6F200EAF6F89DFD0
:10033C00020EB06F090EB16F450EB26F000EB36FA7
:10034C00BFDE35D0020EAD6F010EAE6F3E0EAF6F3D
:10035C0078DF020EB06F090EB16F3D0EB26F000E5A
:10036C00B36FAEDE010E616F000E626F020E756F21
:10037C00000E766F010EAD6F010EAE6F200EAF6FDB
:10038C0060DF010EB06F090EB16F950EB26F000EEB
:10039C00B36F96DE0CD0000E621902E1010E6119EA
:1003AC00A8E0000E621902E1020E6119CBE083B2E3
:1003BC0053D046D0010EB56F3EDE010EB06F010E6C
:1003CC00B16F8E0EB26F000EB36F7ADE010EB06F8E
:1003DC00090EB16FA50EB26F000EB36F71DE020E77
:1003EC00B06F090EB16F9D0EB26F000EB36F68DE69
:1003FC00010E5D6E000E5E6E2FD0010EB56F1BDE12
:10040C00010EB06F010EB16F7F0EB26F000EB36FA5
:10041C0057DE010EB06F090EB16F770EB26F000E82
:10042C00B36F4EDE020EB06F090EB16F860EB26F57
:10043C00000EB36F45DE010E5D6E000E5E6E0CD0CD
:10044C00000E761902E1010E7519B4E0000E761952
:10045C0002E1020E7519D1E083B039D0000E5E189E
:10046C0002E1010E5D1833E126D0010EAD6F090ECD
:10047C00AE6F3E0EAF6FE5DE020E636F000E646F63
:10048C00020EAD6F090EAE6F200EAF6FDADE1FD00D
:10049C00020EAD6F090EAE6F3E0EAF6FD2DE010EC7
:1004AC00636F000E646F010EAD6F090EAE6F200E00
:1004BC00AF6FC7DE0CD0000E641902E1010E631998
:1004CC00D4E0000E641902E1020E6319E1E083B47A
:1004DC0007D0000E5E1802E1010E5D1801E18CDE02
:1004EC00030E0B6E8A0E0C6E550E0D6E0D2EFED776
:1004FC000C2EFCD70B2EFAD700000000F1D6FFD73C
:1005A20010EE15F04A0E006E010E016E580EF66E38
:1005B200050EF76E000EF86EAFEC00F010EE61F073
:1005C2004C0E006E010E016E0C0EF66E050EF76EED
:0A05D200000EF86EAFEC00F012000E
:02050C000100EC
:02050E000100EA
:100510003E4F5043414F31205B454E5445525D00A4
:020520000100D8
:080522003E53454E534F3200D9
:07052A004F5043414F320026
:080531002045515549503200EC
:070539004F5043414F310018
:080540002020202020202000D3
:080548002045515549503100D6
:080550003E53454E534F3100AC
:10055800204F5043414F32202020202020202000CF
:100568003E4F5043414F31205B454E5445525D004C
:080578005B454E5445525D0045
:080580005B454E5445525D003D
:0805880020202020202020008B
:10059000204F5043414F3220202020202020200097
:0205A000000059
:020000040030CA
:0D000100031F3CFFBD81FF0FC00FE00F404B
:00000001FF
