:100000000EEF00F00000000000EF00F00000000024
:0A0010000000000000000000F3D71C
:10001C00156A166A176AF19E0F0EC11293809382AD
:10002C00956A836A81B21CD01750000A19E1151C1D
:10003C00026E02C000F00036009000C002F0001EFC
:10004C0000C015F000C083FF010E176E820E0C6EFF
:10005C00DD0E0D6E0D2EFED70C2EFCD70000000011
:10006C0081A20ED01750010A0BE1176A820E0C6E9A
:10007C00DD0E0D6E0D2EFED70C2EFCD700000000F1
:10008C0081B017D01650000A14E115C000F00032F0
:10009C00009E00C015F000C083FF010E166E820E8C
:1000AC000C6EDD0E0D6E0D2EFED70C2EFCD7000047
:1000BC00000081A00ED01650010A0BE1166A820EC8
:1000CC000C6EDD0E0D6E0D2EFED70C2EFCD7000027
:0600DC000000A8D7FFD7C9
:020000040030CA
:0D000100021F1EFF8381FF0FC00FE00F40A4
:00000001FF
