:10000000A1EF01F00000000000EF00F00000000090
:0A0010000000000000000000F3D71C
:0A001C00210E0D6E0D2EFED712000E
:100026000F0E0C6E470E0D6E0D2EFED70C2EFCD746
:06003600000000001200B2
:06003C00000000001200AC
:100042003EBE02D0839E01D0838E3EBC02D0839CF2
:1000520001D0838C3EBA02D0839A01D0838A3EB803
:1000620002D0839801D0838829B002D0848401D041
:1000720084948482E2DF84923EB602D0839E01D0D1
:10008200838E3EB402D0839C01D0838C3EB202D0D8
:10009200839A01D0838A3EB002D0839801D08388AC
:1000A20029B002D0848401D084948482C6DF8492F1
:0C00B20029A002D0B7DF01D0B0DF12009F
:0C00BE0029903DC03EF0BEDF29801200FA
:1000CA00969296949598959A959C959E84928494E6
:1000DA00839E839C839A8398A1DFA0DF9FDF838A14
:1000EA0083888482A6DF849299DF8482A2DF849245
:1000FA0095DF84829EDF849291DF8398848299DFE0
:10010A0084928CDF848295DF8492839A838E8482A0
:10011A0090DF849283DF839E838884828ADF84923D
:10012A008398848286DF849279DF848282DF849254
:10013A00838884827EDF849271DF8398848279DF68
:10014A008492838E838C838A8388848272DF8492EA
:06015A0065DF29801200A0
:10016000086A096A100E0C6E01340836093604500C
:10017000085E0550D8A0053C095ED8B007D00450F1
:1001800008260550D8B0053C0926D890003601361F
:060190000C2EEAD712005C
:100196000FD0800E386E19D0C00E386E16D0940E61
:1001A600386E13D0D40E386E10D0800E386E0DD047
:1001B6003850010AEEE03850020AEEE03850030AE1
:1001C600EEE03850040AEEE0F0D73904006E3850FD
:1001D600002600C038F000C03EF030DF29903C6AAF
:1001E6003C503A24E96E000E3B20EA6EEE520BE0DC
:1001F6003C503A24E96E000E3B20EA6EEECF3DF00D
:0A0206005BDF3C2AEDD729801200CF
:1002100092809282010EC26E0D0EC16EAA0EC06E49
:020220001200CA
:100222000900F5CFE6FF0006FBE10106F9E1120045
:100232004BDF010E3E6E04DF0C0E3E6E01DF010E3F
:10024200386E010E396E150E3A6E000E3B6EA2DF4D
:10025200020E386E010E396E1F0E3A6E000E3B6EA4
:0402620099DF12000E
:10026600356A050E355C0AE235503324E16E000E20
:100276003420E26E200EE66E352AF3D7355033244D
:10028600E16E000E3420E26EE66A35063550332400
:10029600366E000E3420376E0A0E046E000E056EA2
:1002A60031C000F032C001F058DF08C000F009C0CC
:1002B60001F0300E002636C0E1FF37C0E2FF00C075
:1002C600E6FF0A0E046E000E056E31C000F032C065
:1002D60001F043DF00C031F001C032F0000E01181A
:1002E60002E1000E001801E102D03506CFD7120058
:1002F60006D0010EC26E09D0050EC26E06D0315070
:10030600000AF7E03150010AF7E01A0E0D6E0D2EC5
:10031600FED70000C282C2A201D0FDD7C4CF04F02E
:10032600000E056E04C003F0026AC3CF00F0000E93
:0C033600016E0250001203500112120070
:10034200EEEC01F064DF74DF316AD4DF00C031F01B
:1003520001C032F02A0E336E000E346E83DF010EBE
:10036200386E0A0E396E2A0E3A6E000E3B6E12DF9E
:10037200340E0C6EF10E0D6E0D2EFED70C2EFCD728
:1003820000000000010E316EB5DF00C031F001C087
:1003920032F02A0E336E000E346E64DF020E386EB7
:1003A2000A0E396E2A0E3A6E000E3B6EF3DE340EE2
:1003B2000C6EF10E0D6E0D2EFED70C2EFCD700002A
:0603C2000000C2D7FFD7C6
:1003DC0010EE15F0140E006E010E016EC80EF66EC6
:0E03EC00030EF76E000EF86E11EC01F0120019
:0A03C8004144432D414E303A20001D
:0A03D2004144435F414E313A2000E0
:020000040030CA
:0D00010002171EFF8181FF0FC00FE00F40AE
:00000001FF
