:10000000F8EF00F00000000000EF00F0000000003A
:0A0010000000000000000000F3D71C
:06001C00000000001200CC
:100022000F0E0C6E470E0D6E0D2EFED70C2EFCD74A
:06003200000000001200B6
:0A003800210E0D6E0D2EFED71200F2
:1000420039BE02D08A9601D08A8639BC02D08A94FF
:1000520001D08A8439BA02D08A9201D08A8239B810
:1000620002D08A9001D08A8032B002D08A8801D030
:100072008A988A8AD2DF8A9A39B602D08A9601D0C1
:100082008A8639B402D08A9401D08A8439B202D0E5
:100092008A9201D08A8239B002D08A9001D08A80B5
:1000A20032B002D08A8801D08A988A8AB6DF8A9AC8
:0C00B20032A002D0B5DF01D0BEDF12008A
:0C00BE00329038C039F0BEDF32801200F2
:0600CA000F0EC11212002E
:1000D0000900F5CFE6FF0006FBE10106F9E1120099
:1000E0000FD0800E336E19D0C00E336E16D0940E22
:1000F000336E13D0D40E336E10D0800E336E0DD00D
:100100003350010AEEE03350020AEEE03350030AA6
:10011000EEE03350040AEEE0F0D73404006E3350C2
:10012000002600C033F000C039F08BDF3290376A10
:1001300037503524E96E000E3620EA6EEE520BE0A1
:1001400037503524E96E000E3620EA6EEECF38F0D7
:0A015000B6DF372AEDD73280120027
:10015A00939A939893909392939493968A9A8A985F
:10016A008A968A948A928A9057DF56DF55DF8A8266
:10017A008A808A8A4EDF8A9A4FDF8A8A4ADF8A9A77
:10018A004BDF8A8A46DF8A9A47DF8A908A8A41DF6A
:10019A008A9A42DF8A8A3DDF8A9A8A928A868A8A7C
:1001AA0038DF8A9A39DF8A968A808A8A32DF8A9A7F
:1001BA008A908A8A2EDF8A9A2FDF8A8A2ADF8A9A87
:1001CA008A808A8A26DF8A9A27DF8A908A8A21DFAA
:1001DA008A9A8A868A848A828A808A8A1ADF8A9A8C
:0601EA001BDF3280120051
:1001F00025EC01F06ADFB1DF010E396E22DF0C0E53
:10020000396E1FDF010E336E010E346E150E356E22
:10021000000E366E65DF020E336E010E346E240E54
:0C022000356E000E366E5CDFFFD7FFD796
:10024A0010EE15F01D0E006E010E016E2C0EF66EEC
:0E025A00020EF76E000EF86E68EC00F0120057
:0F022C005072696D65697261204C696E6861007E
:0E023B00536567756E6461204C696E686100E2
:020000040030CA
:0D000100021F1EFF8381FF0FC00FE00F40A4
:00000001FF
