:10000000F8EF00F00000000000EF00F0000000003A
:0A0010000000000000000000F3D71C
:06001C00000000001200CC
:100022000F0E0C6E470E0D6E0D2EFED70C2EFCD74A
:06003200000000001200B6
:0A003800210E0D6E0D2EFED71200F2
:1000420039BE02D0839E01D0838E39BC02D0839CFC
:1000520001D0838C39BA02D0839A01D0838A39B80D
:1000620002D0839801D0838832B002D0848401D038
:1000720084948482D2DF849239B602D0839E01D0E6
:10008200838E39B402D0839C01D0838C39B202D0E2
:10009200839A01D0838A39B002D0839801D08388B1
:1000A20032B002D0848401D084948482B6DF8492F8
:0C00B20032A002D0B5DF01D0BEDF12008A
:0C00BE00329038C039F0BEDF32801200F2
:0600CA000F0EC11212002E
:1000D0000900F5CFE6FF0006FBE10106F9E1120099
:1000E0000FD0800E336E19D0C00E336E16D0940E22
:1000F000336E13D0D40E336E10D0800E336E0DD00D
:100100003350010AEEE03350020AEEE03350030AA6
:10011000EEE03350040AEEE0F0D73404006E3350C2
:10012000002600C033F000C039F08BDF3290376A10
:1001300037503524E96E000E3620EA6EEE520BE0A1
:1001400037503524E96E000E3620EA6EEECF38F0D7
:0A015000B6DF372AEDD73280120027
:10015A00969296949598959A959C959E8492849455
:10016A00839E839C839A839857DF56DF55DF838A61
:10017A00838884824EDF84924FDF84824ADF8492AE
:10018A004BDF848246DF849247DF8398848241DF93
:10019A00849242DF84823DDF8492839A838E8482B2
:1001AA0038DF849239DF839E8388848232DF8492A7
:1001BA00839884822EDF84922FDF84822ADF8492BE
:1001CA008388848226DF849227DF8398848221DFD2
:1001DA008492838E838C838A838884821ADF8492B2
:0601EA001BDF3280120051
:1001F00025EC01F06ADFB1DF010E396E22DF0C0E53
:10020000396E1FDF010E336E010E346E150E356E22
:10021000000E366E65DF020E336E010E346E240E54
:0C022000356E000E366E5CDFFFD7FFD796
:10024A0010EE15F01D0E006E010E016E2C0EF66EEC
:0E025A00020EF76E000EF86E68EC00F0120057
:0F022C005072696D65697261204C696E6861007E
:0E023B00536567756E6461204C696E686100E2
:020000040030CA
:0D000100021F1EFF8081FF0FC00FE00F40A7
:00000001FF
