:1000000058EF01F00000000000EF00F000000000D9
:0A0010000000000000000000F3D71C
:0A001C00210E0D6E0D2EFED712000E
:100026000F0E0C6E470E0D6E0D2EFED70C2EFCD746
:06003600000000001200B2
:06003C00000000001200AC
:1000420031BE02D0839E01D0838E31BC02D0839C0C
:1000520001D0838C31BA02D0839A01D0838A31B81D
:1000620002D0839801D083881FB002D0848401D04B
:1000720084948482E2DF849231B602D0839E01D0DE
:10008200838E31B402D0839C01D0838C31B202D0F2
:10009200839A01D0838A31B002D0839801D08388B9
:1000A2001FB002D0848401D084948482C6DF8492FB
:0C00B2001FA002D0B7DF01D0B0DF1200A9
:1000BE00086A096A100E0C6E0134083609360450AF
:1000CE00085E0550D8A0053C095ED8B007D0045094
:1000DE0008260550D8B0053C0926D89000360136C2
:0600EE000C2EEAD71200FF
:0C00F4001F9030C031F0A3DF1F8012000D
:10010000969296949598959A959C959E84928494AF
:10011000839E839C839A839886DF85DF84DF838A2E
:10012000838884828BDF84927EDF848287DF84925F
:100130007ADF848283DF849276DF839884827EDF15
:10014000849271DF84827ADF8492839A838E8482A0
:1001500075DF849268DF839E838884826FDF849258
:10016000839884826BDF84925EDF848267DF84926F
:100170008388848263DF849256DF839884825EDF83
:100180008492838E838C838A8388848257DF8492CF
:060190004ADF1F8012008F
:100196000900F5CFE6FF0006FBE10106F9E11200D2
:1001A6002D6A050E2D5C0AE22D502B24E16E000E01
:1001B6002C20E26E200EE66E2D2AF3D72D502B242E
:1001C600E16E000E2C20E26EE66A2D062D502B24E1
:1001D6002E6E000E2C202F6E0A0E046E000E056E7B
:1001E60029C000F02AC001F067DF08C000F009C08E
:1001F60001F0300E00262EC0E1FF2FC0E2FF00C046
:10020600E6FF0A0E046E000E056E29C000F02AC035
:1002160001F052DF00C029F001C02AF0000E0118DB
:1002260002E1000E001801E102D02D06CFD7120020
:100236000FD0800E296E19D0C00E296E16D0940EDE
:10024600296E13D0D40E296E10D0800E296E0DD0D3
:100256002950010AEEE02950020AEEE02950030A6D
:10026600EEE02950040AEEE0F0D72A04006E295089
:10027600002600C029F000C031F0E0DE1F902D6A94
:100286002D502B24E96E000E2C20EA6EEE520BE068
:100296002D502B24E96E000E2C20EA6EEECF30F0A6
:0A02A60026DF2D2AEDD71F8012007D
:1002B000430E156E6F0E166E750E176E6E0E186E5F
:1002C000740E196E650E1A6E720E1B6E3A0E1C6E4F
:1002D000200E1D6E1E6A0F0EC112380ED56EFF0E57
:1002E000D76EF60ED66EF2949288956A836AD58E92
:1002F00007DF010E316EA5DE0C0E316EA2DE010E9F
:10030000296E010E2A6E150E2B6E000E2C6E93DFD9
:10031000D7CF21F0D6CF20F0F60E205C296EFF0E4D
:1003200021582A6E220E2B6E000E2C6E3CDF010E21
:10033000296E090E2A6E220E2B6E000E2C6E7BDFAC
:10034000F2A40AD08CB002D0838001D08390FF0E3B
:0C035000D76EF60ED66EF294DBD7FFD706
:020000040030CA
:0D000100021F1EFF8181FF0FC00FE00F40A6
:00000001FF
