:100000002BEF00F00000000000EF00F00000000007
:0A0010000000000000000000F3D71C
:10001C0009D0838011D083820FD083840DD0836A62
:10002C00156A0AD01750010AF4E01750020AF3E0DF
:0A003C001750030AF2E0F3D7120098
:100046000900F5CFE6FF0006FBE10106F9E1120023
:10005600156A166A0F0EC112938081800B0E0B6E05
:10006600260E0C6E5D0E0D6E0D2EFED70C2EFCD7D9
:100076000B2EFAD700000000956A836A820E0C6E7A
:10008600DD0E0D6E0D2EFED70C2EFCD700000000E7
:1000960081B012D01650000A0FE1152A15C017F0CC
:1000A600BADF010E166E680E0C6EE40E0D6E0D2E86
:1000B600FED70C2EFCD7000081A00DD01650010AE9
:1000C6000AE1166A680E0C6EE40E0D6E0D2EFED752
:0A00D6000C2EFCD70000DCD7FFD78A
:020000040030CA
:0D000100021F1EFF8181FF0FC00FE00F40A6
:00000001FF
