:1000000088EF01F00000000000EF00F000000000A9
:0A0010000000000000000000F3D71C
:10001C000F0E0C6E470E0D6E0D2EFED70C2EFCD750
:06002C00000000001200BC
:0A003200210E0D6E0D2EFED71200F8
:06003C00000000001200AC
:100042002EBE02D08A9601D08A862EBC02D08A9415
:1000520001D08A842EBA02D08A9201D08A822EB826
:1000620002D08A9001D08A801BB002D08A8801D047
:100072008A988A8AE2DF8A9A2EB602D08A9601D0BC
:100082008A862EB402D08A9401D08A842EB202D0FB
:100092008A9201D08A822EB002D08A9001D08A80C0
:1000A2001BB002D08A8801D08A988A8AC6DF8A9ACF
:0C00B2001BA002D0B2DF01D0BBDF1200A7
:1000BE00086A096A100E0C6E0134083609360450AF
:1000CE00085E0550D8A0053C095ED8B007D0045094
:1000DE0008260550D8B0053C0926D89000360136C2
:0600EE000C2EEAD71200FF
:0C00F4001B902DC02EF0A3DF1B8012001B
:100100000900F5CFE6FF0006FBE10106F9E1120068
:10011000939A939893909392939493968A9A8A98A9
:100120008A968A948A928A9079DF78DF77DF8A824A
:100130008A808A8A83DF8A9A71DF8A8A7FDF8A9A35
:100140006DDF8A8A7BDF8A9A69DF8A908A8A76DF06
:100150008A9A64DF8A8A72DF8A9A8A928A868A8A6F
:100160006DDF8A9A5BDF8A968A808A8A67DF8A9A3D
:100170008A908A8A63DF8A9A51DF8A8A5FDF8A9A45
:100180008A808A8A5BDF8A9A49DF8A908A8A56DF68
:100190008A9A8A868A848A828A808A8A4FDF8A9AA1
:0601A0003DDF1B80120090
:1001A6000FD0800E266E19D0C00E266E16D0940E75
:1001B600266E13D0D40E266E10D0800E266E0DD06D
:1001C6002650010AEEE02650020AEEE02650030A07
:1001D600EEE02650040AEEE0F0D72704006E265023
:1001E600002600C026F000C02EF028DF1B902A6AE9
:1001F6002A502824E96E000E2920EA6EEE520BE002
:100206002A502824E96E000E2920EA6EEECF2DF042
:0A0216006EDF2A2AEDD71B801200CC
:1002200012D00F01388192808080010EC26E0E0EB6
:10023000C16E0FD00F01388392828082050EC26E8C
:100240000F0EC16E06D02650000AEBE02650010AC0
:10025000F1E0AA0EC06E1A0E0D6E0D2EFED7000034
:10026000C282C2A201D0FDD7C4CF03F0026AC3CFBD
:1002700000F0000E016E0250001203500112120035
:100280002A6A050E2A5C0AE22A502824E16E000E32
:100290002920E26E200EE66E2A2AF3D72A5028245F
:1002A000E16E000E2920E26EE66A2A062A50282412
:1002B0002B6E000E29202C6E0A0E046E000E056EA9
:1002C00026C000F027C001F0FADE08C000F009C027
:1002D00001F0300E00262BC0E1FF2CC0E2FF00C071
:1002E000E6FF0A0E046E000E056E26C000F027C061
:1002F00001F0E5DE00C026F001C027F0000E011875
:1003000002E1000E001801E102D02A06CFD7120048
:10031000410E156E440E166E430E176E3A0E186E91
:10032000200E196E1A6A0F01396BF2DE010E2E6E65
:1003300088DE0C0E2E6E85DE010E266E010E276EF7
:10034000150E286E000E296E2EDF266A69DF00C0AA
:1003500026F001C027F01C0E286E000E296E90DFDB
:10036000010E266E050E276E1C0E286E000E296EDD
:100370001ADF340E0C6EF10E0D6E0D2EFED70C2E04
:0A038000FCD700000000E1D7FFD712
:020000040030CA
:0D000100231F3CFFBD81FF0FC00FE00F402B
:00000001FF
