:1000000015EF05F00000000000EF00F00000000018
:0A0010000000000000000000F3D71C
:06001C00000000001200CC
:100022000F0E0C6E470E0D6E0D2EFED70C2EFCD74A
:06003200000000001200B6
:0A003800210E0D6E0D2EFED71200F2
:080042000AAE029E000E12003E
:10004A000B840BAE30EF00F0010E036E026A016AF8
:0A005A00006A0A360232FF0E12009F
:0E006400026A016A006A086A036A000E12004E
:1000720047BE02D0839E01D0838E47BC02D0839CB0
:1000820001D0838C47BA02D0839A01D0838A47B8C1
:1000920002D0839801D0838826B002D0848401D014
:1000A20084948482BADF849247B602D0839E01D0C0
:1000B200838E47B402D0839C01D0838C47B202D096
:1000C200839A01D0838A47B002D0839801D0838873
:1000D20026B002D0848401D0849484829EDF8492EC
:0C00E20026A002D09DDF01D0A6DF120096
:1000EE000B820BAE81EF00F00368026801680068B6
:0800FE000A360232FF0E120067
:100106000C6A0E6A0250D8A49CEF00F001C002F0FF
:1001160000C001F0006A0E860250D8A49CEF00F0E1
:1001260001C002F0016A0E960E880250D8B4AEEFF6
:1001360000F00E50035ED8A4D8A0B3EF00F0D8901C
:1001460002BEB8EF00F0003601360236032EA3EFEA
:1001560000F0B3EF00F0010E0C6E81DFBBEF00F094
:10016600020E0C6E6FDFBBEF00F0040E0C6E66DF46
:02017600120075
:10017800086A096A000E0762036441EF01F0025041
:1001880006180A6E075003267E0ED8A0D2EF00F09C
:10019800035ED8B045EF01F0D6EF00F0035ED8A0BB
:1001A80049EF01F0028E068E02C00EF001C00BF07E
:1001B80000C00DF000500402F4CF0CF0015005020D
:1001C800F4CF00F0F3CF08F00402F3500C26F450FB
:1001D8000822000E00220D500502F3500C26F450A0
:1001E8000822000E002202500402F3500826F450A0
:1001F800002202500502016A000E0122F350002677
:10020800F45001220D500602F3500826F450002243
:10021800026A000E012202220B500602F350002649
:10022800F4500122000E02220E500602F35001265D
:10023800F450022202BE29EF01F0083600360136DA
:1002480002360306D8B449EF01F03CEF01F0D8803C
:10025800800E08640030000E002201220222D8A07D
:100268003CEF01F0023201320032034A45EF01F05F
:100278000AAE029E000E4BEF01F0010EEFDE4BEFCF
:1002880001F0020E30DF4BEF01F0040EDADE12004F
:100298000D6A086A0050D8B4000C04180A6E0ABE29
:1002A8000D1E0B6A04AE02D0041E042A00AE02D052
:1002B800001E002A005004100A6E0ABE1FD0045007
:1002C800085E003600340836045008260036060E4C
:1002D8000C6E00340836045000B0085E00A00826F2
:1002E80000360C2EF6D700A008260BB015D00DAEA0
:1002F800000C001E002A081E082A000C04AE09D0B3
:1003080000BE04D00050086E006AF1D7006A002AC7
:10031800000C001E0B2AD3D7082A0450085CD8A466
:0E032800E6D7086A002A00AEE2D7FF0C1200EA
:1003360043C004F044C005F004C002F005C003F059
:10034600044A052A45C000F046C001F0454A462A3F
:1003560000C0E9FF01C0EAFF02C0E1FF03C0E2FFFF
:10036600EECFE6FF02C0E9FF03C0EAFFEE5201E06E
:0C037600E3D743C000F044C001F01200C7
:100382000A6A0350D8A40A800750D8A40A820A50E5
:10039200D8B424EF02F0030AD8B4DDEF01F00AB0BA
:1003A200D8EF01F006AE22EF02F020EF02F002AE2B
:1003B20020EF02F022EF02F00250800B0A6E029E42
:1003C2000650800B069E0A18D8B4EEEF01F00A50D0
:1003D200D8B420EF02F022EF02F00750035CD8B449
:1003E200F8EF01F0D8A014EF02F01AEF02F0065075
:1003F200025CD8B402EF02F0D8A014EF02F01AEFB8
:1004020002F00550015CD8B40CEF02F0D8A014EF52
:1004120002F01AEF02F00450005CD8B424EF02F0AC
:10042200D8B01AEF02F00A52D8B422EF02F020EF4D
:1004320002F00A52D8B420EF02F022EF02F0D88084
:0E0442001200D8901200D880D8841200120048
:0C045000269043C047F00DDE268012000D
:0C045C000E0E0D6E0D2EFED700001200DB
:100468000FD0800E356E19D0C00E356E16D0940E92
:10047800356E13D0D40E356E10D0800E356E0DD07B
:100488003550010AEEE03550020AEEE03550030A15
:10049800EEE03550040AEEE0F0D73604006E355031
:1004A800002600C035F000C047F0DFDD2690396A2D
:1004B80039503724E96E000E3820EA6EEE520BE010
:1004C80039503724E96E000E3820EA6EEECF43F03B
:0A04D800BBDF392AEDD726801200A1
:1004E2000900F5CFE6FF0006FBE10106F9E1120083
:1004F200969296949598959A959C959E84928494BA
:10050200839E839C839A83988BDD8ADD89DD838A2F
:100512008388848282DD849283DD84827EDD84927C
:100522007FDD84827ADD84927BDD8398848275DD2F
:10053200849276DD848271DD8492839A838E8482B2
:100542006CDD84926DDD839E8388848266DD849275
:100552008398848262DD849263DD84825EDD84928C
:10056200838884825ADD84925BDD8398848255DDA0
:100572008492838E838C838A838884824EDD8492E4
:060582004FDD268012008F
:100588000050086E0150006E016A026A036A0B6A25
:100598000C6A960E036E0A6A00C001F008C000F0EB
:0805A800086A026AACDD1200D2
:1005B000416A426A35C03DF036C03EF037C03FF078
:1005C00038C040F04050FF0A08E13F50FF0A05E103
:1005D0003E50FF0A02E13D50FF0A0CE139C043F0F2
:1005E0003AC044F0200E456E000E466EA4DE030EA7
:1005F000006EE9D1010E3B6E3FAE0ED0800E3F186B
:10060000006E00C03FF03B2A39C0E1FF3AC0E2FF74
:100610002D0EE66E394A3A2A000E006E401808E1A7
:1006200000503F1805E100503E1802E13D50000A1D
:100630000BE139C043F03AC044F0240E456E000E81
:10064000466E79DE006ABFD14050FF0A08E13F5094
:10065000000A05E13E50000A02E13D50000A0CE1AB
:1006600039C043F03AC044F01C0E456E000E466E91
:1006700062DE3BC000F0A7D1000E046E000E056ED6
:10068000000E066E7F0E076E3DC000F03EC001F00A
:100690003FC002F040C003F074DE010ED8B0000E7F
:1006A000006E00521BE03DC000F03EC001F03FC0B4
:1006B00002F040C003F0000E046E000E056E200E26
:1006C000066E820E076E58DD00C03DF001C03EF0A0
:1006D00002C03FF003C040F04206CED7000E046EC9
:1006E000000E056E200E066E820E076E3DC000F0F5
:1006F0003EC001F03FC002F040C003F042DE000EF9
:10070000D8B0010E006E00521BE03DC000F03EC0AC
:1007100001F03FC002F040C003F0CD0E046ECC0EDD
:10072000056E4C0E066E7B0E076E26DD00C03DF09A
:1007300001C03EF002C03FF003C040F0422ACED7D5
:10074000FF0E3D14086EFF0E3E14096E7F0E3F141F
:100750000A6E000E40140B6E08C004F009C005F0CC
:100760000AC006F00BC007F00436049005360636C2
:100770000736000E3D14006E000E3E14016E000E92
:100780003F14026EFF0E4014036E00C03DF001C026
:100790003EF002C03FF003C040F004503D10006E38
:1007A00005503E10016E06503F10026E075040107B
:1007B000036E00C03DF001C03EF002C03FF003C038
:1007C00040F07F0E405C006E00C03CF0010E406EB9
:1007D00000C004F03DC000F03EC001F03FC002F098
:1007E00040C003F0045007E00036009001360236A6
:1007F0000336FF0FF8D700C03DF001C03EF002C045
:100800003FF003C040F039C0E1FF3AC0E2FF405082
:10081000300FE66E394A3A2A800E4218006E800E7A
:10082000010A005C08E3800E060A006E800E421882
:10083000005C01E30AD039C0E1FF3AC0E2FF2E0EAE
:10084000E66E394A3A2A010E416E060E3C6E3C5065
:10085000000A54E0406A3DC000F03EC001F03FC0D5
:1008600002F040C003F00036009001360236033635
:10087000003600900136023603363D5000263E50C9
:1008800001223F5002224050032200C03DF001C02F
:100890003EF002C03FF003C040F03DC000F03EC05B
:1008A00001F03FC002F040C003F000360090013676
:1008B0000236033600C03DF001C03EF002C03FF0FA
:1008C00003C040F039C0E1FF3AC0E2FF4050300FB2
:1008D000E66E394A3A2A4150000A0EE14206425079
:1008E000000A0AE139C0E1FF3AC0E2FF2E0EE66ECF
:1008F000394A3A2A010E416E3C06A9D7FF0E392427
:10090000E96EFF0E3A20EA6EEE50300A05E1010E64
:10091000395E000E3A5AF2D7FF0E3924E96EFF0E07
:100920003A20EA6EEE502E0A04E1010E395E000E06
:100930003A5A4250000A41E039C0E1FF3AC0E2FFB2
:10094000650EE66E394A3A2A800E4218006E800E15
:10095000000A005C0BE239C0E1FF3AC0E2FF2D0E55
:10096000E66E394A3A2A42500008426E42C03CF0D4
:10097000800E090A006E800E4218005C0EE20A0E1C
:10098000046E3CC000F088DC39C0E1FF3AC0E2FFF1
:100990000050300FE66E394A3A2A0A0E046E3CC007
:1009A00000F07ADC08C000F039C0E1FF3AC0E2FF95
:1009B0000050300FE66E394A3A2A39C0E1FF3AC09A
:0809C000E2FFE66A006A120082
:1009C800FF0E276EFF0E286EFF0E296EFF0E2A6E91
:1009D800C26A151C006E0050C116070EC012C08EE8
:0409E800C2801200B7
:1009EC00C26A151C006E0050C116070EC012C08ED4
:1009FC0035C000F000360090003600900050C21256
:100A0C00C28026DDC282C2A201D0FDD7C4CF01F0C4
:0E0A1C00006AC3500012000E0112C2901200B8
:100A2A005BEC05F092800E0EC16E5EDD010E476E24
:100A3A0039EC00F00C0E476E39EC00F0010E356E01
:100A4A00010E366E160E376E000E386E08DDB7DFF1
:100A5A00356AC7DF94DD00C035F001C036F002C048
:100A6A0037F003C038F02B0E396E000E3A6E9BDD5C
:100A7A00010E356E060E366E2B0E376E000E386E70
:100A8A00EEDC340E0C6EF10E0D6E0D2EFED70C2E12
:0A0A9A00FCD700000000DCD7FFD7F6
:100AB60010EE15F0110E006E010E016EA40EF66E0C
:0E0AC6000A0EF76E000EF86E71EC02F01200D0
:010AA4003021
:060AA500414E303A200032
:040AAB00494E46006A
:040AAF004E614E0046
:020AB300300011
:020000040030CA
:0D000100021F1EFF8381FF0FC00FE00F40A4
:00000001FF
