:100000005BEF01F00000000000EF00F000000000D6
:0A0010000000000000000000F3D71C
:10001C001A0E0D6E0D2EFED70000818A1A0E0D6E73
:10002C000D2EFED70000819A1A0E0D6E0D2EFED7E6
:04003C0000001200AE
:100040003BB002D0819801D08188060E0C6E300E34
:100050000D6E0D2EFED70C2EFCD70000100E3C149A
:10006000016E0150100A010ED8A4000E006E00B0FF
:1000700002D0819001D08180200E3C14016E01508D
:10008000200A010ED8A4000E006E00B002D08192AA
:1000900001D08182400E3C14016E0150400A010ED5
:1000A000D8A4000E006E00B002D0819401D08184EB
:1000B000800E3C14016E0150800A010ED8A4000E7F
:1000C000006E00B002D0819601D08186A7DF3CC0CF
:1000D00002F0023602900236029002360290023698
:1000E000029002C03CF0100E0214016E0150100A82
:1000F000010ED8A4000E006E00B002D0819001D095
:100100008180200E0214016E0150200A010ED8A435
:10011000000E006E00B002D0819201D08182400EAC
:100120000214016E0150400A010ED8A4000E006EA8
:1001300000B002D0819401D08184800E0214016E3F
:100140000150800A010ED8A4000E006E00B002D04B
:0A015000819601D0818662DF120063
:0C015A00010E3B6E39C03CF06EDF12005D
:0A0166003B6A39C03CF069DF12006B
:1001700039C0E9FF3AC0EAFFEE520CE0010E3B6ED7
:1001800039C0E9FF3AC0EAFFEECF3CF059DF394A07
:060190003A2AEED712002E
:10019600819814D07F0E3624006E00C036F03B6A7C
:1001A60000C03CF04ADF10D0BF0E3624006E00C0FF
:1001B60036F03B6A00C03CF040DF06D03550010AFD
:1001C600E9E03550020AF0E037C039F0C3DF12002B
:0601D6000F0EC112120021
:1001DC000900F5CFE6FF0006FBE10106F9E112008C
:1001EC00819814D07F0E3624006E00C036F03B6A26
:1001FC0000C03CF01FDF10D0BF0E3624006E00C0D4
:10020C0036F03B6A00C03CF015DF06D03550010AD1
:10021C00E9E03550020AF0E037C039F038C03AF066
:04022C00A1DF12003C
:1002300093908190939281929394819493968196D6
:10024000939A819A93988198020E0B6E040E0C6E0D
:10025000BA0E0D6E0D2EFED70C2EFCD70B2EFAD734
:10026000000081808182DADED9DED8DE030E0C6EDA
:10027000970E0D6E0D2EFED70C2EFCD70000000041
:1002800081908182CBDECADE030E0C6E970E0D6E5E
:100290000D2EFED70C2EFCD700000000280E396E64
:1002A00062DF0C0E396E5FDF060E396E5CDF010E09
:0602B000396E59DF120057
:1002B60090EC01F08DDFB9DF010E396E51DF010ED2
:1002C600356E010E366E230E376E000E386E8BDFDE
:1002D600020E356E010E366E150E376E000E386E36
:1002E60082DF020E356E0E0E366E410E376E50DF11
:0A02F600250E396E2FDFFFD7FFD76A
:1003200010EE15F0200E006E010E016E000EF66E3E
:0E033000030EF76E000EF86EEEEC00F01200F9
:0E030000202020342D626974206D6F6465002A
:10030E002020204C434420446973706C6179202076
:02031E002000BD
:020000040030CA
:0D000100021F1EFF8181FF0FC00FE00F40A6
:00000001FF
