:1000000059EF01F00000000000EF00F000000000D8
:0A0010000000000000000000F3D71C
:10001C001A0E0D6E0D2EFED7000084821A0E0D6E78
:10002C000D2EFED7000084921A0E0D6E0D2EFED7EB
:04003C0000001200AE
:100040003BB002D0849401D08484060E0C6E300E36
:100050000D6E0D2EFED70C2EFCD70000100E3C149A
:10006000016E0150100A010ED8A4000E006E00B0FF
:1000700002D0839801D08388200E3C14016E015079
:10008000200A010ED8A4000E006E00B002D0839AA0
:1000900001D0838A400E3C14016E0150400A010ECB
:1000A000D8A4000E006E00B002D0839C01D0838CD7
:1000B000800E3C14016E0150800A010ED8A4000E7F
:1000C000006E00B002D0839E01D0838EA7DF3CC0BB
:1000D00002F0023602900236029002360290023698
:1000E000029002C03CF0100E0214016E0150100A82
:1000F000010ED8A4000E006E00B002D0839801D08B
:100100008388200E0214016E0150200A010ED8A42B
:10011000000E006E00B002D0839A01D0838A400E98
:100120000214016E0150400A010ED8A4000E006EA8
:1001300000B002D0839C01D0838C800E0214016E2B
:100140000150800A010ED8A4000E006E00B002D04B
:0A015000839E01D0838E62DF12004F
:0C015A00010E3B6E39C03CF06EDF12005D
:0A0166003B6A39C03CF069DF12006B
:1001700039C0E9FF3AC0EAFFEE520CE0010E3B6ED7
:1001800039C0E9FF3AC0EAFFEECF3CF059DF394A07
:060190003A2AEED712002E
:10019600849414D07F0E3624006E00C036F03B6A7D
:1001A60000C03CF04ADF10D0BF0E3624006E00C0FF
:1001B60036F03B6A00C03CF040DF06D03550010AFD
:1001C600E9E03550020AF0E037C039F0C3DF12002B
:0601D6000F0EC112120021
:1001DC000900F5CFE6FF0006FBE10106F9E112008C
:1001EC00849414D07F0E3624006E00C036F03B6A27
:1001FC0000C03CF01FDF10D0BF0E3624006E00C0D4
:10020C0036F03B6A00C03CF015DF06D03550010AD1
:10021C00E9E03550020AF0E037C039F038C03AF066
:04022C00A1DF12003C
:1002300095988398959A839A959C839C959E839E86
:100240009692849296948494020E0B6E040E0C6E19
:10025000BA0E0D6E0D2EFED70C2EFCD70B2EFAD734
:1002600000008388838ADADED9DED8DE1A0E0C6EAF
:10027000F80E0D6E0D2EFED70C2EFCD700008398C5
:10028000838ACCDECBDE1A0E0C6EF80E0D6E0D2EB0
:10029000FED70C2EFCD70000280E396E64DF0C0E42
:1002A000396E61DF060E396E5EDF010E396E5BDF7F
:0202B00012003A
:1002B2008EEC01F08FDFBBDF010E396E53DF010ED2
:1002C200356E010E366E230E376E000E386E8DDFE0
:1002D200020E356E010E366E150E376E000E386E3A
:1002E20084DF020E356E0E0E366E410E376E52DF11
:0A02F200250E396E31DFFFD7FFD76C
:10031C0010EE15F0200E006E010E016EFC0EF66E46
:0E032C00020EF76E000EF86EEEEC00F01200FE
:0E02FC00202020342D626974206D6F6465002F
:10030A002020204C434420446973706C617920207A
:02031A002000C1
:020000040030CA
:0D000100021E1EFF8181FF0FC00FE00F40A7
:00000001FF
