:1000000071EF01F00000000000EF00F000000000C0
:0A0010000000000000000000F3D71C
:10001C000F0E0C6E470E0D6E0D2EFED70C2EFCD750
:06002C00000000001200BC
:06003200000000001200B6
:0A003800210E0D6E0D2EFED71200F2
:1000420030BE02D0839E01D0838E30BC02D0839C0E
:1000520001D0838C30BA02D0839A01D0838A30B81F
:1000620002D0839801D083881BB002D0848401D04F
:1000720084948482DDDF849230B602D0839E01D0E4
:10008200838E30B402D0839C01D0838C30B202D0F4
:10009200839A01D0838A30B002D0839801D08388BA
:1000A2001BB002D0848401D084948482C1DF849204
:0C00B2001BA002D0B2DF01D0BEDF1200A4
:0C00BE001B902FC030F0BEDF1B80120032
:1000CA00086A096A100E0C6E0134083609360450A3
:1000DA00085E0550D8A0053C095ED8B007D0045088
:1000EA0008260550D8B0053C0926D89000360136B6
:0600FA000C2EEAD71200F3
:10010000969296949598959A959C959E84928494AF
:10011000839E839C839A839881DF80DF7FDF838A3D
:100120008388848286DF849279DF848282DF84926E
:1001300075DF84827EDF849271DF8398848279DF29
:1001400084926CDF848275DF8492839A838E8482AA
:1001500070DF849263DF839E838884826ADF849267
:100160008398848266DF849259DF848262DF84927E
:10017000838884825EDF849251DF8398848259DF92
:100180008492838E838C838A8388848252DF8492D4
:0601900045DF1B80120098
:100196000FD0800E2A6E19D0C00E2A6E16D0940E7D
:1001A6002A6E13D0D40E2A6E10D0800E2A6E0DD071
:1001B6002A50010AEEE02A50020AEEE02A50030A0B
:1001C600EEE02A50040AEEE0F0D72B04006E2A5027
:1001D600002600C02AF000C030F030DF1B902E6AE7
:1001E6002E502C24E96E000E2D20EA6EEE520BE006
:1001F6002E502C24E96E000E2D20EA6EEECF2FF045
:0A0206005BDF2E2AEDD71B801200EB
:100210009280010EC26E0E0EC16EAA0EC06E12004A
:100220000900F5CFE6FF0006FBE10106F9E1120047
:10023000276A050E275C0AE227502524E16E000E8E
:100240002620E26E200EE66E272AF3D727502524BB
:10025000E16E000E2620E26EE66A2706275025246E
:10026000286E000E2620296E0A0E046E000E056E02
:1002700023C000F024C001F028DF08C000F009C04E
:1002800001F0300E002628C0E1FF29C0E2FF00C0C7
:10029000E6FF0A0E046E000E056E23C000F024C0B7
:1002A00001F013DF00C023F001C024F0000E01189C
:1002B00002E1000E001801E102D02706CFD712009C
:1002C0001FDF010E306EBDDE0C0E306EBADE010E89
:1002D0002A6E010E2B6E150E2C6E000E2D6E5BDF3E
:0202E00012000A
:1002E200410E156E440E166E430E176E3A0E186EC0
:1002F200200E196E1A6A8BDFE2DFC282C2A201D01F
:10030200FDD7C4CF23F0000E246E23C024F0236A4D
:10031200C3CF00F0000E016E0050231201502412D0
:100322001C0E256E000E266E82DF010E2A6E060E50
:100332002B6E1C0E2C6E000E2D6E2CDF340E0C6EEE
:10034200F10E0D6E0D2EFED70C2EFCD70000000014
:04035200D4D7FFD726
:020000040030CA
:0D000100021F1EFF8381FF0FC00FE00F40A4
:00000001FF
