:10000000CBEF01F00000000000EF00F00000000066
:0A0010000000000000000000F3D71C
:10001C000F0E0C6E470E0D6E0D2EFED70C2EFCD750
:06002C00000000001200BC
:06003200000000001200B6
:0A003800210E0D6E0D2EFED71200F2
:1000420021BE02D08A9601D08A8621BC02D08A942F
:1000520001D08A8421BA02D08A9201D08A8221B840
:1000620002D08A9001D08A8017B002D08A8801D04B
:100072008A988A8ADDDF8A9A21B602D08A9601D0CE
:100082008A8621B402D08A9401D08A8421B202D015
:100092008A9201D08A8221B002D08A9001D08A80CD
:1000A20017B002D08A8801D08A988A8AC1DF8A9AD8
:0C00B20017A002D0B2DF01D0BEDF1200A8
:0C00BE0017901EC021F0BEDF178012005A
:1000CA000FD0800E1E6E19D0C00E1E6E16D0940E62
:1000DA001E6E13D0D40E1E6E10D0800E1E6E0DD062
:1000EA001E50010AEEE01E50020AEEE01E50030AFC
:1000FA00EEE01E50040AEEE0F0D71F04006E1E5018
:10010A00002600C01EF0178000C021F095DF17906E
:0A011A0020C021F091DF17801200D1
:060124000F01396B12000F
:10012A000900F5CFE6FF0006FBE10106F9E112003E
:10013A00939A939893909392939493968A9A8A987F
:10014A008A968A948A928A9064DF63DF62DF8A825F
:10015A008A808A8A69DF8A9A5CDF8A8A65DF8A9A54
:10016A0058DF8A8A61DF8A9A54DF8A908A8A5CDF3A
:10017A008A9A4FDF8A8A58DF8A9A8A928A868A8A74
:10018A0053DF8A9A46DF8A968A808A8A4DDF8A9A5C
:10019A008A908A8A49DF8A9A3CDF8A8A45DF8A9A64
:1001AA008A808A8A41DF8A9A34DF8A908A8A3CDF87
:1001BA008A9A8A868A848A828A808A8A35DF8A9A91
:0601CA0028DF178012007F
:1001D0009AD0400E216E35DF1A6A400E1A5C11E289
:1001E000E80E1A24F66E040EF76E000EF722000ECB
:1001F000F86E000EF8220900F5CF1EF060DF1A2A13
:10020000ECD71A6A080E1A5C13E2040E1A5C04E2B8
:100210001AC01EF054DF0AD0020E1E6E1A50010FD3
:100220001F6E040E1F5E1AC020F04FDF1A2AEAD795
:1002300074D0400E216E05DF1A6A400E1A5C11E27E
:10024000A80E1A24F66E040EF76E000EF722000EAA
:10025000F86E000EF8220900F5CF1EF030DF1A2AE2
:10026000ECD71A6A080E1A5C18E2040E1A5C09E24E
:10027000010E1E6E1A50010F1F6E1AC020F025DFEE
:100280000AD0020E1E6E1A50010F1F6E040E1F5E62
:100290001AC020F01ADF1A2AE5D73FD0400E216E8F
:1002A000D0DE1A6A400E1A5C11E2680E1A24F66E4D
:1002B000040EF76E000EF722000EF86E000EF82204
:1002C0000900F5CF1EF0FBDE1A2AECD71A6A080ED9
:1002D0001A5C18E2040E1A5C09E2010E1E6E1A5036
:1002E000010F1F6E1AC020F0F0DE0AD0020E1E6E43
:1002F0001A50010F1F6E040E1F5E1AC020F0E5DEBB
:100300001A2AE5D70AD01950010AD8B462D7195071
:0C031000020A8FE01950030AC1E012003D
:10031C000FD0800E196E19D0C00E196E16D0940E17
:10032C00196E13D0D40E196E10D0800E196E0DD01C
:10033C001950010AEEE01950020AEEE01950030AB6
:10034C00EEE01950040AEEE0F0D71A04006E1950D2
:10035C00002600C019F000C021F06DDE17901D6A58
:10036C001D501B24E96E000E1C20EA6EEE520BE0B1
:10037C001D501B24E96E000E1C20EA6EEECF1EF001
:0A038C0098DE1D2AEDD7178012003D
:10039600156A166AC4DECEDE010E216E4FDE0C0E25
:1003A600216E4CDE010E196E010E1A6E160E1B6EB4
:1003B600000E1C6EB0DF020E196E010E1A6E150EBF
:1003C6001B6E000E1C6EA7DF186A090E185C3EE253
:1003D600010E196EFADE1C0E216E30DE040E0B6E57
:1003E6000C0E0C6E330E0D6E0D2EFED70C2EFCD79A
:1003F6000B2EFAD700000000020E196EE6DE1C0E68
:10040600216E1CDE040E0B6E0C0E0C6E330E0D6E82
:100416000D2EFED70C2EFCD70B2EFAD700000000AF
:10042600030E196ED2DE1C0E216E08DE040E0B6E54
:100436000C0E0C6E330E0D6E0D2EFED70C2EFCD749
:100446000B2EFAD700000000182ABFD7186A0D0E27
:10045600185C05E21C0E216EF1DD182AF8D7B4D718
:02046600FFD7BE
:10046800000000070F1E1C182020200F1F1F1F1F31
:10047800202020031F1F1F1F011F1F1F1B1B1010E1
:1004880013130202042020201F070E06012020203B
:100498000F07130F2010202010180C040201202031
:1004A8000000000000070F1E202020200E1F1F1F25
:1004B80020202020071F1F1F20021F1F1F1B131093
:1004C80010202001010120201F1F1B1201011120F3
:1004D8001F1F010101012020181C040810201020F2
:1004E8000000000003070E0E202020200F1F1F1FF2
:1004F80020202020031F1F1F20011F1F1F1B131058
:100508000C181001010120201F1F1E172020102089
:100518001F1F0302120201201C1C040408202020B3
:020000040030CA
:0D000100231F3CFFBD81FF0FC00FE00F402B
:00000001FF
