:10000000CCEF01F00000000000EF00F00000000065
:0A0010000000000000000000F3D71C
:10001C000F0E0C6E470E0D6E0D2EFED70C2EFCD750
:06002C00000000001200BC
:0A003200210E0D6E0D2EFED71200F8
:06003C00000000001200AC
:1000420037BE02D08A9601D08A8637BC02D08A9403
:1000520001D08A8437BA02D08A9201D08A8237B814
:1000620002D08A9001D08A801CB002D08A8801D046
:100072008A988A8AE2DF8A9A37B602D08A9601D0B3
:100082008A8637B402D08A9401D08A8437B202D0E9
:100092008A9201D08A8237B002D08A9001D08A80B7
:1000A2001CB002D08A8801D08A988A8AC6DF8A9ACE
:0C00B2001CA002D0B2DF01D0BBDF1200A6
:1000BE00086A096A100E0C6E0134083609360450AF
:1000CE00085E0550D8A0053C095ED8B007D0045094
:1000DE0008260550D8B0053C0926D89000360136C2
:0600EE000C2EEAD71200FF
:1000F400346A050E345C0AE234503224E16E000E98
:100104003320E26E200EE66E342AF3D734503224C4
:10011400E16E000E3320E26EE66A34063450322477
:10012400356E000E3320366E0A0E046E000E056E18
:1001340030C000F031C001F0C0DF08C000F009C0D9
:1001440001F0300E002635C0E1FF36C0E2FF00C0EA
:10015400E6FF0A0E046E000E056E30C000F031C0DA
:1001640001F0ABDF00C030F001C031F0000E011827
:1001740002E1000E001801E102D03406CFD71200CC
:0C0184001C9030C037F05BDF1C801200C4
:100190000F01396B3B6B95808380958283821200BF
:1001A0000900F5CFE6FF0006FBE10106F9E11200C8
:1001B000939A939893909392939493968A9A8A9809
:1001C0008A968A948A928A9029DF28DF27DF8A829A
:1001D0008A808A8A33DF8A9A21DF8A8A2FDF8A9A85
:1001E0001DDF8A8A2BDF8A9A19DF8A908A8A26DFA6
:1001F0008A9A14DF8A8A22DF8A9A8A928A868A8A6F
:100200001DDF8A9A0BDF8A968A808A8A17DF8A9A8C
:100210008A908A8A13DF8A9A01DF8A8A0FDF8A9A94
:100220008A808A8A0BDF8A9AF9DE8A908A8A06DFB8
:100230008A9A8A868A848A828A808A8AFFDE8A9A51
:06024000EDDE1C8012003F
:100246002C6A2D6A26C02EF027C02FF0800E2718A4
:10025600006E800E005C02E1000E265C0BE2010ED1
:100266002C6E000E2D6E265000082E6E27C02FF025
:10027600000E2F562EC030F02FC031F028C032F0BD
:1002860029C033F034DF060E2A6E000E2B6E000EE8
:10029600006E2B50005C02E12A50000819E22A5039
:1002A6002824E16E2B502920E26E010E2A5C006E96
:1002B600000E2B58016E00502824E96E01502920AB
:1002C600EA6EEECFE6FF010E2A5E000E2B5ADFD74E
:1002D60028C0E1FF29C0E2FF200EE66E2C502D104B
:1002E6001AE02A6A2B6A2A502824E96E2B50292004
:1002F600EA6EEE50200A03E12A4A2B2AF4D7010EB1
:100306002A5E000E2B5A2A502824E16E2B502920F3
:08031600E26E2D0EE66E1200EE
:10031E000FD0800E266E19D0C00E266E16D0940EFB
:10032E00266E13D0D40E266E10D0800E266E0DD0F3
:10033E002650010AEEE02650020AEEE02650030A8D
:10034E00EEE02650040AEEE0F0D72704006E2650A9
:10035E00002600C026F000C037F06CDE1C902A6A22
:10036E002A502824E96E000E2920EA6EEE520BE088
:10037E002A502824E96E000E2920EA6EEECF30F0C6
:0A038E00FADE2A2AEDD71C801200C7
:10039800560E156E610E166E6C0E176E6F0E186E79
:1003A800720E196E3A0E1A6E1B6A246A256AECDE02
:1003B800FBDE010E376E41DE0C0E376E3EDE010E9F
:1003C800266E010E276E150E286E000E296EA3DF0D
:1003D80083B022D0244A252A24C030F025C031F029
:1003E8001D0E326E000E336E81DE010E266E070E74
:1003F800276E1D0E286E000E296E8DDF040E0B6E03
:100408000C0E0C6E330E0D6E0D2EFED70C2EFCD777
:100418000B2EFAD70000000083B224D0010E245E10
:10042800000E255A24C026F025C027F01D0E286E80
:10043800000E296E04DF010E266E070E276E1D0EB4
:10044800286E000E296E67DF040E0B6E0C0E0C6E04
:10045800330E0D6E0D2EFED70C2EFCD70B2EFAD7B1
:0804680000000000B5D7FFD72A
:020000040030CA
:0D000100231F3CFFBD81FF0FC00FE00F402B
:00000001FF
