:10000000C3EF02F00000000000EF00F0000000006D
:0A0010000000000000000000F3D71C
:06001C00000000001200CC
:0A002200210E0D6E0D2EFED7120008
:10002C000F0E0C6E470E0D6E0D2EFED70C2EFCD740
:06003C00000000001200AC
:100042000B840BAE2CEF00F0010E036E026A016A04
:0A005200006A0A360232FF0E1200A7
:0E005C00026A016A006A086A036A000E120056
:10006A0033BE02D0839E01D0838E33BC02D0839CE0
:10007A0001D0838C33BA02D0839A01D0838A33B8F1
:10008A0002D0839801D0838820B002D0848401D022
:10009A0084948482BEDF849233B602D0839E01D0D8
:1000AA00838E33B402D0839C01D0838C33B202D0C6
:1000BA00839A01D0838A33B002D0839801D083888F
:1000CA0020B002D0848401D084948482A2DF8492F6
:0C00DA0020A002D0A6DF01D09FDF1200A2
:0800E6000AAE029E000E12009A
:1000EE000B800BAE83EF00F0026A0AAEFF0E026EBB
:0C00FE00016E006E0A360232FF0E120086
:0C010A000E0E0D6E0D2EFED70000120030
:100116000C6A0E6A0250D8A4A4EF00F001C002F0E7
:1001260000C001F0006A0E860250D8A4A4EF00F0C9
:1001360001C002F0016A0E960E880250D8B4B6EFDE
:1001460000F00E50035ED8A4D8A0BBEF00F0D89004
:1001560002BEC0EF00F0003601360236032EABEFCA
:1001660000F0BBEF00F0010E0C6E75DFC3EF00F080
:10017600020E0C6E63DFC3EF00F0040E0C6EB0DFF0
:02018600120065
:0C018800209032C033F06DDF20801200A8
:100194000B820BAED4EF00F00368026801680068BC
:0801A4000A360232FF0E1200C0
:1001AC000900F5CFE6FF0006FBE10106F9E11200BC
:1001BC000FD0800E2D6E19D0C00E2D6E16D0940E51
:1001CC002D6E13D0D40E2D6E10D0800E2D6E0DD042
:1001DC002D50010AEEE02D50020AEEE02D50030ADC
:1001EC00EEE02D50040AEEE0F0D72E04006E2D50F8
:1001FC00002600C02DF000C033F031DF2090316AB2
:10020C0031502F24E96E000E3020EA6EEE520BE0D6
:10021C0031502F24E96E000E3020EA6EEECF32F012
:0A022C00ADDF312AEDD7208012006B
:10023600969296949598959A959C959E8492849478
:10024600839E839C839A8398EEDEEDDEECDE838AC2
:1002560083888482E0DE8492E6DE8482DCDE849219
:10026600E2DE8482D8DE8492DEDE83988482D3DE68
:100276008492D9DE8482CFDE8492839A838E8482AE
:10028600CADE8492D0DE839E83888482C4DE849212
:1002960083988482C0DE8492C6DE8482BCDE849229
:1002A60083888482B8DE8492BEDE83988482B3DE3D
:1002B6008492838E838C838A83888482ACDE849244
:0602C600B2DE20801200F0
:1002CC00086A096A000E07620364EBEF01F0025042
:1002DC0006180A6E075003267E0ED8A07CEF01F09C
:1002EC00035ED8B0EFEF01F080EF01F0035ED8A011
:1002FC00F3EF01F0028E068E02C00EF001C00BF07F
:10030C0000C00DF000500402F4CF0CF001500502B7
:10031C00F4CF00F0F3CF08F00402F3500C26F450A5
:10032C000822000E00220D500502F3500C26F4504A
:10033C000822000E002202500402F3500826F4504A
:10034C00002202500502016A000E0122F350002621
:10035C00F45001220D500602F3500826F4500022EE
:10036C00026A000E012202220B500602F3500026F4
:10037C00F4500122000E02220E500602F350012608
:10038C00F450022202BED3EF01F0083600360136DB
:10039C0002360306D8B4F3EF01F0E6EF01F0D88093
:1003AC00800E08640030000E002201220222D8A028
:1003BC00E6EF01F0023201320032034AEFEF01F0B6
:1003CC000AAE029E000EF5EF01F0010E41DEF5EFD4
:1003DC0001F0020ED9DEF5EF01F0040E2CDE120056
:1003EC000B6A0C6A0A6A0350D8B440EF02F0028E12
:1003FC008E0E035E03BE08EF02F0D8B408EF02F0D5
:10040C0044EF02F0036C080E035CD8A01FEF02F05F
:10041C00036E013602C001F0026A080E035CD8A01C
:10042C001FEF02F00136016A0350D8A4D89029EFCF
:10043C0002F00350D8B429EF02F0D8900232013206
:10044C00032E23EF02F00BBC01A036EF02F0D8A074
:10045C0036EF02F0012AD8B4022A02BE53EF02F0A2
:10046C000AAE58EF02F0021E011E012AD8B4022A6D
:10047C0058EF02F0026A016A58EF02F00B800BAEE3
:10048C005CEF02F0026A0AAE5CEF02F0FF0E026E45
:10049C00016E0A3602325CEF02F0010E0C6E21DEA8
:1004AC005EEF02F0000E0C6E5EEF02F0FF0E0C6EB3
:0A04BC000150006E0250016E1200A4
:1004C600086A096A100E0C6E0134083609360450A3
:1004D600085E0550D8A0053C095ED8B007D0045088
:1004E60008260550D8B0053C0926D89000360136B6
:0604F6000C2EEAD71200F3
:1004FC00FF0E216EFF0E226EFF0E236EFF0E246E7A
:10050C00C26A1F1C006E0050C116070EC012C08EAE
:04051C00C280120087
:10052000C26A1F1C006E0050C116070EC012C08E9A
:100530002DC000F000360090003600900050C2122E
:10054000C280E3DDC282C2A201D0FDD7C4CF01F0D8
:0E055000006AC3500012000E0112C290120089
:10055E000050086E0150006E016A026A036A0B6A4F
:10056E000C6A960E036E0A6A00C001F008C000F015
:08057E00086A026AC9DD1200DF
:100586004FEC03F092800E0EC16E52DE010E336EFA
:1005960069DD0C0E336E66DD010E2D6E010E2E6EBC
:1005A600150E2F6E000E306E06DEA5DF2D6AB5DF46
:1005B600D3DF900E046E3E0E056E7A0E066E7E0E2C
:1005C600076E81DE10DF00C02BF001C02CF0E80EB4
:1005D600046E030E056E2BC000F02CC001F070DF18
:1005E600300E002600C025F0640E046E000E056E67
:1005F6002BC000F02CC001F063DF0A0E046E000E63
:10060600056E5EDF08C000F009C001F0300E002460
:10061600266E2E0E276E0A0E046E000E056E2BC079
:1006260000F02CC001F04CDF0A0E046E000E056EC1
:1006360047DF08C000F009C001F0300E0024286E24
:100646000A0E046E000E056E2BC000F02CC001F0E1
:1006560037DF08C000F009C001F0300E0024296E13
:100666002A6A010E2D6E0A0E2E6E250E2F6E000EB4
:10067600306EA1DD340E0C6EF10E0D6E0D2EFED712
:0C0686000C2EFCD70000000091D7FFD71D
:10069E0010EE15F00B0E006E010E016E920EF66E40
:0E06AE00060EF76E000EF86ED6EC00F012008D
:0A0692004144432D414E303A200050
:01069C00302D
:020000040030CA
:0D000100021F1EFF8181FF0FC00FE00F40A6
:00000001FF
