:10000000F5EF00F00000000000EF00F0000000003D
:0A0010000000000000000000F3D71C
:06001C00000000001200CC
:100022000F0E0C6E470E0D6E0D2EFED70C2EFCD74A
:06003200000000001200B6
:0A003800210E0D6E0D2EFED71200F2
:100042003BBE02D08A9601D08A863BBC02D08A94FB
:1000520001D08A843BBA02D08A9201D08A823BB80C
:1000620002D08A9001D08A8033B002D08A8801D02F
:100072008A988A8AD2DF8A9A3BB602D08A9601D0BF
:100082008A863BB402D08A9401D08A843BB202D0E1
:100092008A9201D08A823BB002D08A9001D08A80B3
:1000A20033B002D08A8801D08A988A8AB6DF8A9AC7
:0C00B20033A002D0B5DF01D0BEDF120089
:0C00BE0033903AC03BF0BEDF33801200EC
:1000CA000900F5CFE6FF0006FBE10106F9E112009F
:1000DA00939A939893909392939493968A9A8A98E0
:1000EA008A968A948A928A9097DF96DF95DF8A8227
:1000FA008A808A8A8EDF8A9A8FDF8A8A8ADF8A9A38
:10010A008BDF8A8A86DF8A9A87DF8A908A8A81DFEA
:10011A008A9A82DF8A8A7DDF8A9A8A928A868A8A7C
:10012A0078DF8A9A79DF8A968A808A8A72DF8A9A3F
:10013A008A908A8A6EDF8A9A6FDF8A8A6ADF8A9A47
:10014A008A808A8A66DF8A9A67DF8A908A8A61DF6A
:10015A008A9A8A868A848A828A808A8A5ADF8A9ACC
:06016A005BDF3380120090
:100170000FD0800E356E19D0C00E356E16D0940E8D
:10018000356E13D0D40E356E10D0800E356E0DD076
:100190003550010AEEE03550020AEEE03550030A10
:1001A000EEE03550040AEEE0F0D73604006E35502C
:1001B000002600C035F000C03BF043DF3390396AC1
:1001C00039503724E96E000E3820EA6EEE520BE00B
:1001D00039503724E96E000E3820EA6EEECF3AF03F
:0A01E0006EDF392AEDD733801200DC
:1001EA0054EC01F00F01396B3B6B9580838070DF13
:1001FA00010E3B6E21DF0C0E3B6E1EDF010E356ECB
:10020A00010E366E150E376E000E386EACDF020E1A
:10021A00356E010E366E240E376E000E386EA3DF71
:10022A00346A100E345C13E21C0E3B6E05DF040EBA
:10023A000B6E0C0E0C6E330E0D6E0D2EFED70C2EA1
:10024A00FCD70B2EFAD700000000342AEAD7346A0A
:10025A00100E345C13E2180E3B6EEEDE040E0B6ECB
:10026A000C0E0C6E330E0D6E0D2EFED70C2EFCD717
:10027A000B2EFAD700000000342AEAD7D1D7FFD7CD
:1002A80010EE15F01E0E006E010E016E8A0EF66E2F
:0E02B800020EF76E000EF86E65EC00F01200FC
:0F028A005052494D45495241204C494E48410080
:0F029900534547554E444120434F4C554E41006D
:020000040030CA
:0D000100231F3CFFBD81FF0FC00FE00F402B
:00000001FF
