:1000000018EF03F00000000000EF00F00000000017
:0A0010000000000000000000F3D71C
:0A001C00210E0D6E0D2EFED712000E
:100026000F0E0C6E470E0D6E0D2EFED70C2EFCD746
:06003600000000001200B2
:06003C00000000001200AC
:100042000B840BAE2CEF00F0010E036E026A016A04
:0A005200006A0A360232FF0E1200A7
:0E005C00026A016A006A086A036A000E120056
:10006A0034BE02D08A9601D08A8634BC02D08A94E1
:10007A0001D08A8434BA02D08A9201D08A8234B8F2
:10008A0002D08A9001D08A8021B002D08A8801D019
:10009A008A988A8ACEDF8A9A34B602D08A9601D0A2
:1000AA008A8634B402D08A9401D08A8434B202D0C7
:1000BA008A9201D08A8234B002D08A9001D08A8092
:1000CA0021B002D08A8801D08A988A8AB2DF8A9AB5
:0C00DA0021A002D0A3DF01D09CDF1200A7
:0800E6000AAE029E000E12009A
:0C00EE00219033C034F0BADF21801200F2
:0C00FA000E0E0D6E0D2EFED70000120041
:100106000C6A0E6A0250D8A49CEF00F001C002F0FF
:1001160000C001F0006A0E860250D8A49CEF00F0E1
:1001260001C002F0016A0E960E880250D8B4AEEFF6
:1001360000F00E50035ED8A4D8A0B3EF00F0D8901C
:1001460002BEB8EF00F0003601360236032EA3EFEA
:1001560000F0B3EF00F0010E0C6E7DDFBBEF00F098
:10016600020E0C6E6BDFBBEF00F0040E0C6EB8DFF8
:02017600120075
:100178000B800BAEC8EF00F0026A0AAEFF0E026EEB
:0C018800016E006E0A360232FF0E1200FB
:100194000B820BAED4EF00F00368026801680068BC
:0801A4000A360232FF0E1200C0
:1001AC00086A096A100E0C6E0134083609360450C0
:1001BC00085E0550D8A0053C095ED8B007D00450A5
:1001CC0008260550D8B0053C0926D89000360136D3
:0601DC000C2EEAD7120010
:1001E2000900F5CFE6FF0006FBE10106F9E1120086
:1001F200939A939893909392939493968A9A8A98C7
:100202008A968A948A928A900DDF0CDF0BDF8A82AB
:100212008A808A8A12DF8A9A05DF8A8A0EDF8A9AA0
:1002220001DF8A8A0ADF8A9AFDDE8A908A8A05DFDE
:100232008A9AF8DE8A8A01DF8A9A8A928A868A8A6A
:10024200FCDE8A9AEFDE8A968A808A8AF6DE8A9AAB
:100252008A908A8AF2DE8A9AE5DE8A8AEEDE8A9AB3
:100262008A808A8AEADE8A9ADDDE8A908A8AE5DED6
:100272008A9A8A868A848A828A808A8ADEDE8A9A30
:06028200D1DE2180120014
:100288000F01396B38813883928080809282808216
:02029800120052
:10029A000FD0800E2C6E19D0C00E2C6E16D0940E74
:1002AA002C6E13D0D40E2C6E10D0800E2C6E0DD066
:1002BA002C50010AEEE02C50020AEEE02C50030A00
:1002CA00EEE02C50040AEEE0F0D72D04006E2C501C
:1002DA00002600C02CF000C034F0C2DE2190306A43
:1002EA0030502E24E96E000E2F20EA6EEE520BE0FB
:1002FA0030502E24E96E000E2F20EA6EEECF33F036
:0A030A00F1DE302AEDD72180120049
:10031400086A096A000E076203640FEF02F00250D4
:1003240006180A6E075003267E0ED8A0A0EF01F02F
:10033400035ED8B013EF02F0A4EF01F0035ED8A07F
:1003440017EF02F0028E068E02C00EF001C00BF011
:1003540000C00DF000500402F4CF0CF0015005026F
:10036400F4CF00F0F3CF08F00402F3500C26F4505D
:100374000822000E00220D500502F3500C26F45002
:100384000822000E002202500402F3500826F45002
:10039400002202500502016A000E0122F3500026D9
:1003A400F45001220D500602F3500826F4500022A6
:1003B400026A000E012202220B500602F3500026AC
:1003C400F4500122000E02220E500602F3500126C0
:1003D400F450022202BEF7EF01F00836003601366F
:1003E40002360306D8B417EF02F00AEF02F0D88001
:1003F400800E08640030000E002201220222D8A0E0
:100404000AEF02F0023201320032034A13EF02F023
:100414000AAE029E000E19EF02F0010E1DDE19EF66
:1004240002F0020EB5DE19EF02F0040E08DE12002F
:100434000B6A0C6A0A6A0350D8B464EF02F0028EA5
:100444008E0E035E03BE2CEF02F0D8B42CEF02F044
:1004540068EF02F0036C080E035CD8A043EF02F0CF
:10046400036E013602C001F0026A080E035CD8A0D4
:1004740043EF02F00136016A0350D8A4D8904DEF3F
:1004840002F00350D8B44DEF02F0D890023201329A
:10049400032E47EF02F00BBC01A05AEF02F0D8A0E4
:1004A4005AEF02F0012AD8B4022A02BE77EF02F012
:1004B4000AAE7CEF02F0021E011E012AD8B4022A01
:1004C4007CEF02F0026A016A7CEF02F00B800BAE53
:1004D40080EF02F0026A0AAE80EF02F0FF0E026EB5
:1004E400016E0A36023280EF02F0010E0C6E42DE1B
:1004F40082EF02F0000E0C6E82EF02F0FF0E0C6E23
:0A0504000150006E0250016E12005B
:10050E00306A050E305C0AE230502E24E16E000E89
:10051E002F20E26E200EE66E302AF3D730502E24B6
:10052E00E16E000E2F20E26EE66A300630502E2469
:10053E00316E000E2F20326E0A0E046E000E056E06
:10054E002CC000F02DC001F02ADE08C000F009C05A
:10055E0001F0300E002631C0E1FF32C0E2FF00C0D4
:10056E00E6FF0A0E046E000E056E2CC000F02DC0C4
:10057E0001F015DE00C02CF001C02DF0000E0118A8
:10058E0002E1000E001801E102D03006CFD71200B2
:10059E00FF0E1D6EFF0E1E6EFF0E1F6EFF0E206EE7
:0C05AE00C26A070EC012C08EC28012008C
:1005BA00C26A070EC012C08E2CC000F0003600902E
:1005CA00003600900050C212C28092DDC282C2A2DE
:1005DA0001D0FDD7C4CF01F0006AC3500012000E4B
:0605EA000112C290120094
:1005F00000C008F00150006E016A026A036A0B6ACB
:100600000C6A016A026A036A960E036E0A6A00AEF9
:1006100010EF03F0081E001E082AD8B4002A0A8E24
:1006200000C001F008C000F0086A026A6CDD120028
:10063000530E156E310E166E3A0E176E186A530E63
:10064000196E320E1A6E3A0E1B6E1C6A1DDED1DD5B
:10065000010E346E0ADD0C0E346E07DD010E2C6EB9
:10066000010E2D6E150E2E6E000E2F6E16DE020E72
:100670002C6E010E2D6E190E2E6E000E2F6E0DDEDD
:100680008EDF2C6A9ADFB4DF0D0E046E320E056E1B
:10069000480E066E7B0E076E3DDECCDE00C02CF0F1
:1006A00001C02DF0220E2E6E000E2F6E30DF010ED7
:1006B0002C6E040E2D6E220E2E6E000E2F6EEDDDB2
:1006C000250E336E14DD340E0C6EF10E0D6E0D2EF4
:1006D000FED70C2EFCD700000000010E2C6E6DDF43
:1006E00087DFD00E046E3F0E056E7F0E066E7C0E09
:1006F000076E10DE9FDE00C02CF001C02DF0220E30
:100700002E6E000E2F6E03DF020E2C6E040E2D6E69
:10071000220E2E6E000E2F6EC0DD340E0C6EF10E0A
:100720000D6E0D2EFED70C2EFCD700000000A9D7B1
:02073000FFD7F1
:020000040030CA
:0D000100231F3CFFBD81FF0FC00FE00F402B
:00000001FF
