:100000005CEF01F00000000000EF00F000000000D5
:0A0010000000000000000000F3D71C
:10001C001A0E0D6E0D2EFED70000818A1A0E0D6E73
:10002C000D2EFED70000819A1A0E0D6E0D2EFED7E6
:04003C0000001200AE
:1000400038B002D0819801D08188060E0C6E300E37
:100050000D6E0D2EFED70C2EFCD70000100E39149D
:10006000016E0150100A010ED8A4000E006E00B0FF
:1000700002D0819001D08180200E3914016E015090
:10008000200A010ED8A4000E006E00B002D08192AA
:1000900001D08182400E3914016E0150400A010ED8
:1000A000D8A4000E006E00B002D0819401D08184EB
:1000B000800E3914016E0150800A010ED8A4000E82
:1000C000006E00B002D0819601D08186A7DF39C0D2
:1000D00002F0023602900236029002360290023698
:1000E000029002C039F0100E0214016E0150100A85
:1000F000010ED8A4000E006E00B002D0819001D095
:100100008180200E0214016E0150200A010ED8A435
:10011000000E006E00B002D0819201D08182400EAC
:100120000214016E0150400A010ED8A4000E006EA8
:1001300000B002D0819401D08184800E0214016E3F
:100140000150800A010ED8A4000E006E00B002D04B
:0A015000819601D0818662DF120063
:0C015A00010E386E36C039F06EDF120066
:0A016600386A36C039F069DF120074
:1001700036C0E9FF37C0EAFFEE520CE0010E386EE0
:1001800036C0E9FF37C0EAFFEECF39F059DF364A13
:06019000372AEED7120031
:10019600819814D07F0E3324006E00C033F0386A85
:1001A60000C039F04ADF10D0BF0E3324006E00C005
:1001B60033F0386A00C039F040DF06D03250010A09
:1001C600E9E03250020AF0E034C036F0C3DF120034
:0601D6000F01396B12005D
:1001DC000900F5CFE6FF0006FBE10106F9E112008C
:1001EC00819814D07F0E3324006E00C033F0386A2F
:1001FC0000C039F01FDF10D0BF0E3324006E00C0DA
:10020C0033F0386A00C039F015DF06D03250010ADD
:10021C00E9E03250020AF0E034C036F035C037F075
:04022C00A1DF12003C
:1002300093908190939281929394819493968196D6
:10024000939A819893988198020E0B6E040E0C6E0F
:10025000BA0E0D6E0D2EFED70C2EFCD70B2EFAD734
:10026000000081808182DADED9DED8DE030E0C6EDA
:10027000970E0D6E0D2EFED70C2EFCD70000000041
:1002800081908182CBDECADEC9DE030E0C6E970E32
:100290000D6E0D2EFED70C2EFCD700000000280E90
:1002A000366E61DF0C0E366E5EDF060E366E5BDF7D
:0802B000010E366E58DF12004A
:1002B80090EC01F08CDFB8DF010E366E50DF010ED6
:1002C800326E010E336E150E346E000E356E8ADFF7
:1002D800020E326E010E336E250E346E000E356E30
:1002E80081DF020E326E0D0E336E410E346E4FDF1B
:0A02F800250E366E2EDFFFD7FFD76C
:1003200010EE15F01D0E006E010E016E020EF66E3F
:0E033000030EF76E000EF86EEEEC00F01200F9
:1003020020204C434420446973706C6179202000A2
:0D0312002020342D626974206D6F64650039
:020000040030CA
:0D000100231F3CFFBD81FF0FC00FE00F402B
:00000001FF
